:020000040800F2
:1000000000000220012400087B0A00087D0A000885
:100010007F0A0008810A0008830A00080000000027
:10002000000000000000000000000000850A000839
:10003000870A000800000000890A00088B0A0008EF
:1000400051240008512400085124000851240008BC
:1000500051240008512400085124000851240008AC
:10006000512400085124000851240008512400089C
:10007000512400085124000851240008512400088C
:1000800051240008512400085124000800000000F9
:1000900000000000000000000000000051240008E3
:1000A000512400085124000851240008512400085C
:1000B000512400085124000851240008512400084C
:1000C000512400085124000851240008950A000812
:1000D00051240008512400085124000800000000A9
:1000E0005124000851240008512400080000000099
:1000F0000000000000000000000000005124000883
:100100000000000051240008512400085124000878
:1001100000000000000000000000000000000000DF
:10012000A50A000851240008B50A00085124000857
:100130005124000800000000000000000000000042
:100140000000000000000000000000005124000832
:1001500051240008512400085124000851240008AB
:100160005124000851240008000000000000000095
:10017000000000000000000000000000000000007F
:1001800000000000512400080000000000000000F2
:0801900051240008512400086D
:1001A00010B5054C237833B9044B13B10448AFF3B1
:1001B00000800123237010BD7000002000000000AB
:1001C000BC2D000808B5034B1BB103490348AFF32E
:1001D000008008BD0000000074000020BC2D000855
:1001E00001F0FF01102A2BDB10F0070F08D010F8E8
:1001F000013B013A8B422DD010F0070F42B3F6D1EC
:10020000F0B441EA012141EA014122F007047FF004
:1002100000070023F0E80256083C85EA010586EA5B
:10022000010685FA47F5A3FA87F586FA47F6A5FA97
:1002300087F68EB9EED1F0BC01F0FF0102F00702A3
:1002400032B110F8013B013A83EA010313B1F8D14E
:100250000020704701387047002D06BF354603382F
:10026000073815F0010F07D1013015F4807F02BF68
:10027000013015F4C03F0130F0BC0138704700BFB9
:1002800053B94AB9002908BF00281CBF4FF0FF31FD
:100290004FF0FF3000F074B9ADF1080C6DE904CEF9
:1002A00000F006F8DDF804E0DDE9022304B0704751
:1002B0002DE9F047089D04468E46002B4DD18A4219
:1002C000944669D9B2FA82F252B101FA02F3C2F14C
:1002D000200120FA01F10CFA02FC41EA030E9440DD
:1002E0004FEA1C48210CBEFBF8F61FFA8CF708FBFE
:1002F00016E341EA034306FB07F199420AD91CEBD6
:10030000030306F1FF3080F01F81994240F21C8107
:10031000023E63445B1AA4B2B3FBF8F008FB10334F
:1003200044EA034400FB07F7A7420AD91CEB040484
:1003300000F1FF3380F00A81A74240F20781644454
:10034000023840EA0640E41B00261DB1D4400023D9
:10035000C5E900433146BDE8F0878B4209D9002D3D
:1003600000F0EF800026C5E9000130463146BDE8C7
:10037000F087B3FA83F6002E4AD18B4202D3824231
:1003800000F2F980841A61EB030301209E46002DE0
:10039000E0D0C5E9004EDDE702B9FFDEB2FA82F235
:1003A000002A40F09280A1EB0C014FEA1C471FFA93
:1003B0008CFE0126200CB1FBF7F307FB131140EA7A
:1003C00001410EFB03F0884208D91CEB010103F147
:1003D000FF3802D2884200F2CB804346091AA4B209
:1003E000B1FBF7F007FB101144EA01440EFB00FEDD
:1003F000A64508D91CEB040400F1FF3102D2A64542
:1004000000F2BB800846A4EB0E0440EA03409CE7E0
:10041000C6F12007B34022FA07FC4CEA030C20FA8D
:1004200007F401FA06F31C43F9404FEA1C4900FAAD
:1004300006F3B1FBF9F8200C1FFA8CFE09FB18112A
:1004400040EA014108FB0EF0884202FA06F20BD99D
:100450001CEB010108F1FF3A80F08880884240F2ED
:100460008580A8F102086144091AA4B2B1FBF9F031
:1004700009FB101144EA014100FB0EFE8E4508D92C
:100480001CEB010100F1FF346CD28E456AD90238B1
:10049000614440EA0840A0FB0294A1EB0E01A14296
:1004A000C846A64656D353D05DB1B3EB080261EB04
:1004B0000E0101FA07F722FA06F3F1401F43C5E9DE
:1004C000007100263146BDE8F087C2F12003D84014
:1004D0000CFA02FC21FA03F3914001434FEA1C4756
:1004E0001FFA8CFEB3FBF7F007FB10360B0C43EA48
:1004F000064300FB0EF69E4204FA02F408D91CEBF8
:10050000030300F1FF382FD29E422DD902386344F5
:100510009B1B89B2B3FBF7F607FB163341EA034195
:1005200006FB0EF38B4208D91CEB010106F1FF38E4
:1005300016D28B4214D9023E6144C91A46EA0046DB
:1005400038E72E46284605E70646E3E61846F8E66D
:100550004B45A9D2B9EB020864EB0C0E0138A3E7B6
:100560004646EAE7204694E74046D1E7D0467BE797
:10057000023B614432E7304609E76444023842E70F
:10058000704700BF30B587B00024019402940394F3
:100590000494059400940E4B1A6B42F001021A6306
:1005A0001B6B03F001030093009B0A4D22461021B0
:1005B000284601F085FA1023019301230293039446
:1005C000049401A9284601F09BF907B030BD00BF93
:1005D000003802400000024010B582B000240194AF
:1005E0000D4B1A6B42F480021A631B6B03F48003F9
:1005F0000193019B22462146382001F095FC3820CA
:1006000001F0CAFC224621463A2001F08DFC3A2036
:1006100001F0C2FC02B010BD00380240F0B591B04C
:1006200003460F461646144A4021684601F044FF2F
:10063000054600240AE03B5D104AC5F140010DEB80
:10064000050001F039FF05440134A4B2B44201D2DF
:100650003B2DF0DD0A4AC5F140010DEB050001F02C
:100660002BFF2A184FF0FF3392B26946054801F07C
:1006700060FE11B0F0BD00BFD42D0008D82D0008D9
:10068000E02D0008C001002008B50368124A93421B
:1006900003D0124A93421AD008BD114B01221A60AE
:1006A000104B1B6843B100220E4B1A600E4BF72112
:1006B00019705A709A70DA70074B9B6813F0800FAC
:1006C000FAD101221021094801F0FAF9E4E7084BB8
:1006D00001221A60E0E700BF00300140003800400E
:1006E0000C020020A000002090000020000002402A
:1006F000180200200268064B9A4200D07047426DF3
:10070000044B1A60044A136801331360F6E700BF14
:1007100000300140100200201402002072B6FEE7F3
:1007200008B50D480D4B03604FF4827343600023FE
:100730008360C360036143614FF400728261C361EF
:100740000362436283620A23C36200F087FB00B93D
:1007500008BDFFF7E3FF00BF680100200030014043
:1007600008B50A480A4B03604FF4E13343600023A5
:100770008360C36003610C2242618361C36101F045
:10078000A8FD00B908BDFFF7C9FF00BFC0010020E8
:100790000044004000B595B03022002108A801F0C7
:1007A00083FE002303930493059306930793019319
:1007B000184A116C41F080511164126C02F08052A1
:1007C0000192019A0293144A116841F44041116068
:1007D000126802F440420292029A02220892012216
:1007E0000B9210220C920E9308A800F065FD68B9D8
:1007F0000F2303930021049105910691079103A80B
:1008000000F0A8FF20B915B05DF804FBFFF786FFE4
:10081000FFF784FF003802400070004010B582B03E
:1008200000241D4B1C601D4B05221A601C4B1C60D4
:1008300001F0FAFBFFF7AEFFFFF7A4FEFFF7CCFED7
:10084000FFF76EFFFFF78CFF0122164B1A60164B65
:100850001A60164B1A60164B1C70164B1C705A709F
:1008600002219970DC701A7111E00D4C04222146AE
:100870001148FFF7D3FE0023236004230193009463
:100880000E4B084A094909680D4800F0CBF8054BA2
:100890001B68002BFBD0E8E7080200209C0000202A
:1008A0008C0000200C02002018020020A000002074
:1008B000A400002094000020E42D000890000020F7
:1008C0006801002070B582B002AC04E9030015464F
:1008D0001E46069C9DF800100139042904D8DFE863
:1008E00001F00D0507090B00002308E0082306E0CE
:1008F0000C2304E0102302E0142300E004239DF8FD
:1009000001100139042906D8DFE801F00316191C8B
:100910001F0043F020039DF80220012A18D0022A6C
:1009200019D09DF803100139062917D8DFE801F026
:1009300024181A1C1E20220043F04003EBE743F06A
:100940006003E8E743F08003E5E743F0A003E2E754
:1009500043F00103E5E743F00303E2E700220CE084
:1009600040220AE0602208E0802206E0A02204E0A3
:10097000C02202E0E02200E020229DF8051009B923
:1009800042F001027421217063707523A370E2703C
:10099000002210210E4801F093F8BDF82030079A8C
:1009A0002146284600F0BAFA03280CD8DFE800F008
:1009B000050D0209022002B070BD00233360012042
:1009C000F9E70420F7E70620F5E70320F3E700BF87
:1009D00000000240F8B504460F4615461E460022A8
:1009E00010210F4801F06CF8BDF818303246294646
:1009F000204600F093FA03280BD8DFE800F0040E3D
:100A000002080220F8BD00233B600120FAE7042021
:100A1000F8E700233B600620F4E70320F2E700BF7D
:100A20000000024000B587B094461A46F1B101219A
:100A30008DF8131000238DF811308DF81510052155
:100A40008DF8101002218DF812108DF81430042347
:100A50000293089B019300926346024606A911E99E
:100A60000300FFF72FFF07B05DF804FB099B00931D
:100A7000089B6146FFF7AEFFF5E7FEE7FEE7FEE7FE
:100A8000FEE7FEE770477047704708B501F0E6FAE9
:100A900008BD000008B5024800F074FB08BD00BFA7
:100AA0006801002008B5024801F03EF908BD00BF0A
:100AB000A800002008B5024801F036F908BD00BFC3
:100AC0000801002082B0002100910B4B5A6C42F4C7
:100AD00080425A645A6C02F480420092009A01915A
:100AE0001A6C42F080521A641B6C03F0805301931D
:100AF000019B02B0704700BF0038024030B589B09A
:100B00000023039304930593069307930268394BDC
:100B10009A4201D009B030BD04460025019503F585
:100B200084335A6C42F480525A645A6C02F48052F4
:100B30000192019A02951A6B42F001021A631B6B33
:100B400003F001030293029BE02303930223049327
:100B5000032306930523079303A9274800F0D0FE3B
:100B60002648274B03604FF0C06343608560C56033
:100B70004FF48063036145618561C5614FF40033C3
:100B80000362456201F022F868BB1C4BE3649C637E
:100B90001C481D4B03604FF080634360402383601B
:100BA0000023C3604FF48062026143618361C361CB
:100BB0004FF400320262436201F008F8B0B9114B01
:100BC000A3649C6300221146232001F0ADF9232089
:100BD00001F0E2F900221146232001F0A5F92320BB
:100BE00001F0DAF996E7FFF799FDCEE7FFF796FDFA
:100BF000E5E700BF0030014000000240A8000020EF
:100C000010640240080100204064024000B589B031
:100C10000023039304930593069307930268154BEF
:100C20009A4202D009B05DF804FB0021019103F55E
:100C3000FA331A6C42F400321A641A6C02F400326D
:100C40000192019A02911A6B42F001021A631B6B26
:100C500003F001030293029B0C23039302230493EA
:100C6000032306930723079303A9034800F048FED4
:100C7000D8E700BF00440040000002402DE9F047E3
:100C800082B00546884617461E4601F0F3F90A9BD6
:100C90001B1A03EB060901F0EDF982462B4B1B688A
:100CA000C3F3CB3309FB03F301932B689C6838EA49
:100CB00004030CBF4FF0010C4FF0000CBC4540D0BA
:100CC000B6F1FF3FF1D001F0D5F9A0EB0A0048459D
:100CD00006D2B9F1000F03D0019B73BB9946E4E73C
:100CE0002A68536823F0E00353606B68B3F5827F92
:100CF0000BD0AB6AB3F5005F14D0012385F85130F7
:100D0000002385F8503003201CE0AB68B3F5004F9A
:100D100002D0B3F5806FECD12A68136823F040034A
:100D20001360E6E72A68136823F4005313602A6807
:100D3000136843F400531360DFE7019B013B019309
:100D4000B3E7002002B0BDE8F08700BF0800002034
:100D500070B584B004460D46164600920B4601223B
:100D60000221FFF78BFFD0B9174B1B68174AA2FB74
:100D700003235B0D4FF47A7202FB03F30393636862
:100D8000B3F5827F11D0039B3BB1039B013B0393DF
:100D900023689B6813F0800FF5D104B070BD636DBC
:100DA00043F0200363650320F7E700962B460022FB
:100DB00080212046FFF762FF0028EED0636D43F0EC
:100DC000200363650320E8E708000020819F5E168A
:100DD00010B582B004460B464168B1F5827F14D04D
:100DE0006168B1F5827F2AD1A168B1F5806F19D011
:100DF0000092002280212046FFF740FF30B3636D50
:100E000043F020036365032020E08168B1F5004FC3
:100E100002D0B1F5806FE3D12068016821F0400174
:100E20000160DDE70092002201212046FFF726FF46
:100E300060B1636D43F020036365032006E0009218
:100E4000002201212046FFF719FF08B902B010BDAA
:100E5000636D43F0200363650320F7E700285AD051
:100E600010B50446436A33B94368B3F5827F05D0B1
:100E70000023C36102E00023036143610023A362F6
:100E800094F85130002B40D0022384F8513022686E
:100E9000136823F040031360636803F48273A2684D
:100EA00002F404421343E26802F40062134322692D
:100EB00002F002021343626902F001021343A269C5
:100EC00002F400721343E26902F038021343226A0B
:100ED00002F080021343A26A02F400522168134315
:100EE0000B60638B03F00403626A02F01002216856
:100EF00013434B602268D36923F40063D36100205D
:100F00006065012384F8513010BD84F850302046CC
:100F1000FFF7F4FDB8E701207047000038B504463C
:100F200090F85100C0B2656801280AD0B5F5827FFB
:100F300040F08B80A568002D40F08980042840F0A7
:100F40008880002900F08780002A00F08680002B2E
:100F500000F0858094F85000012800F08280012084
:100F600084F8500094F85100C0B2042802D0052043
:100F700084F85100002060652163A386E386A263A4
:100F8000A387E3872064606494F85130DBB2042BBC
:100F90001DD0E36C344A1A64E36C344ADA63E36CC0
:100FA000334ADA64E36C00221A652168E38F9BB24E
:100FB000A26B0C31E06C00F06FFE78B1636D43F012
:100FC00010036365002384F8503001203EE0E36C99
:100FD000284A1A64E36C284ADA63E0E72268536817
:100FE00043F001035360A26C00231364A26CD3632B
:100FF000A26CD364A26C13652268E38E9BB20C32A0
:10100000216BA06C00F048FEB0B923681A6812F09A
:10101000400F03D11A6842F040021A60002384F89E
:1010200050302268536843F02003536022685368AD
:1010300043F00203536009E0636D43F010036365FE
:10104000002384F85030012000E0022038BD022047
:10105000FCE70220FAE70120F8E70120F6E701208B
:10106000F4E70220F2E700BF8D1000082711000806
:101070009710000881100008B910000870477047E9
:1010800008B5806BFFF7FBFF08BD704708B5806BA4
:10109000FFF7FBFF08BD08B5806B0268536823F0BB
:1010A00003035360436D43F010034365012380F84D
:1010B0005130FFF71FFB08BD38B50546846B00F0C3
:1010C000D9FF2B681B6813F4807F1ED1024621686C
:1010D0004B6823F020034B60A3681BB96368B3F52A
:1010E000827F16D021684B6823F001034B60642196
:1010F0002046FFF76DFE08B1202363650023E387D8
:10110000012384F85130636D4BB92046FFF7B6FFD9
:1011100038BD21684B6823F003034B60E7E72046A6
:10112000FFF7E8FAF4E738B50546846B00F0A2FF54
:101130002B681B6813F4807F1BD1024621684B6823
:1011400023F020034B6064212046FFF701FE18B115
:10115000636D43F0200363652268536823F0030343
:1011600053600023E386E387012384F85130636DE5
:101170001BB92046FFF788FA38BD2046FFF7BAFAB8
:10118000FAE7000030B585B00446026851689368FC
:10119000C3F3801013F0400F05D113F0010F02D0FC
:1011A00011F0400F69D113F0020F02D011F0800F3F
:1011B00067D1C3F3401513F0200F03D110B913F416
:1011C000807F61D011F0200F5ED078B194F851008B
:1011D000C0B203285AD0606D40F004006065002062
:1011E0000090D068009090680090009865B1606DA4
:1011F00040F0010060650020029090680290106845
:1012000020F040001060029A13F4807F09D0636DD3
:1012100043F0080363650023039323689B680393EB
:10122000039B636D002B2FD02268536823F0E003EB
:101230005360012384F8513011F0030F2ED022683F
:10124000536823F003035360E36C4BB1154A1A65EE
:10125000E06C00F056FD18B1636D43F04003636528
:10126000A36C8BB10F4A1A65A06C00F04AFD58B10F
:10127000636D43F04003636506E0236C20469847A6
:1012800002E0636C2046984705B030BD002301930F
:10129000D368019393680193019BF5E72046FFF71C
:1012A00029FAF1E7A912000808B5806B0023C3876B
:1012B000C386FFF71FFA08BD002800F0E08170B573
:1012C00082B00446036813F0010F3BD09F4B9B682C
:1012D00003F00C03042B2CD09C4B9B6803F00C03F5
:1012E000082B21D06368B3F5803F4FD0B3F5A02F12
:1012F00052D0964B1A6822F480321A601A6822F48F
:1013000080221A606368002B50D000F0B3FE0546BF
:101310008E4B1B6813F4003F14D100F0ABFE401B52
:101320006428F5D90320B1E1884B5B6813F4800F82
:10133000D8D0864B1B6813F4003F03D06368002BA2
:1013400000F09F81236813F0020F54D07F4B9B68FD
:1013500013F00C0F3ED07D4B9B6803F00C03082B61
:1013600033D0E368002B68D0794B01221A6000F07B
:1013700081FE0546754B1B6813F0020F54D100F037
:1013800079FE401B0228F5D903207FE16F4A1368DC
:1013900043F480331360B5E76C4B1A6842F4802243
:1013A0001A601A6842F480321A60ABE700F062FEFD
:1013B0000546664B1B6813F4003FC3D000F05AFE8D
:1013C000401B6428F5D9032060E1604B5B6813F48F
:1013D000800FC6D15D4B1B6813F0020F03D0E3688A
:1013E000012B40F05081594A136823F0F80321691A
:1013F00043EAC1031360236813F0080F42D0636906
:101400006BB3534B0122C3F8802E00F033FE054628
:101410004E4B5B6F13F0020F34D100F02BFE401BDC
:101420000228F5D9032031E1484A136823F0F80374
:10143000216943EAC1031360DDE7454B00221A60CE
:1014400000F018FE0546414B1B6813F0020FD2D086
:1014500000F010FE401B0228F5D9032016E13C4B9A
:101460000022C3F8802E00F005FE0546374B5B6F67
:1014700013F0020F06D000F0FDFD401B0228F5D945
:10148000032003E1236813F0040F77D02F4B1B6C6C
:1014900013F0805F33D1002301932C4B1A6C42F080
:1014A00080521A641B6C03F080530193019B012549
:1014B000284B1B6813F4807F23D0A368012B34D002
:1014C000052B38D0214B1A6F22F001021A671A6FD0
:1014D00022F004021A67A368002B3DD000F0CAFD79
:1014E00006461A4B1B6F13F0020F46D100F0C2FDE7
:1014F000801B41F288339842F3D90320C6E00025CF
:10150000D6E7144A136843F48073136000F0B2FD09
:101510000646104B1B6813F4807FCED100F0AAFD65
:10152000801B0228F5D90320B0E0084A136F43F06E
:1015300001031367CFE7054B1A6F42F004021A67E5
:101540001A6F42F001021A67C5E700BF0038024077
:10155000000047420070004000F08CFD0646524BF0
:101560001B6F13F0020F08D000F084FD801B41F2C6
:1015700088339842F3D9032088E0EDB9A369002BA2
:1015800000F08380484A926802F00C02082A51D089
:10159000022B17D0454B00221A6600F06BFD044663
:1015A000414B1B6813F0007F42D000F063FD001B2D
:1015B0000228F5D9032069E03B4A136C23F08053DD
:1015C0001364DBE7394B00221A6600F053FD054631
:1015D000354B1B6813F0007F06D000F04BFD401B1D
:1015E0000228F5D9032051E0E369226A1343626AB5
:1015F00043EA8213A26A5208013A43EA0243E26ACA
:1016000043EA0263284A5360284B01221A6600F01D
:1016100031FD0446244B1B6813F0007F06D100F017
:1016200029FD001B0228F5D903202FE000202DE022
:1016300000202BE0012B2BD01B4B5B6803F48001B7
:10164000E269914226D103F03F02216A8A4223D106
:10165000616A47F6C0721A40B2EB811F1ED103F4D3
:101660004031A26A5208013AB1EB024F18D103F09F
:101670007063E26AB3EB026F14D1002006E0012030
:101680007047012002E0012000E0002002B070BDA0
:101690000120FBE70120F9E70120F7E70120F5E74A
:1016A0000120F3E70120F1E7003802400000474243
:1016B00008B5254B9B6803F00C03042B3FD0082B87
:1016C0003FD1214B5A6802F03F025B6813F4800F50
:1016D00012D01D4B5968C1F388111C480023A1FB8F
:1016E0000001FEF7CDFD184B5B68C3F301430133E6
:1016F0005B00B0FBF3F025E0134B5968C1F3881C85
:101700004FEA4C11B1EB0C006EEB0E0E4FEA8E134C
:1017100043EA90638101091A63EB0E03DB0043EA9D
:101720005173C90011EB0C0C43F100039902002323
:101730004FEA8C2041EA9C51FEF7A2FDD3E7034813
:1017400000E0034808BD00BF0038024040787D013A
:101750000024F400002800F09B8070B50D4604467C
:101760004F4B1B6803F007038B4208D2CBB24C4AA5
:101770001370136803F007038B4240F08B802368DB
:1017800013F0020F17D013F0040F04D0454A9368EA
:1017900043F4E0539360236813F0080F04D0414AE8
:1017A000936843F4604393603E4A936823F0F003E8
:1017B000A1680B439360236813F0010F32D0636874
:1017C000012B21D09A1E012A25D9364A126812F01F
:1017D000020F61D033498A6822F0030213438B6001
:1017E00000F048FC06462F4B9B6803F00C03626830
:1017F000B3EB820F16D000F03DFC801B41F2883322
:101800009842F0D9032042E0264A126812F4003FC1
:10181000E0D101203BE0234A126812F0007FD9D1C9
:10182000012034E01E4B1B6803F00703AB4207D9CD
:10183000EAB21B4B1A701B6803F00703AB422DD1B1
:10184000236813F0040F06D0164A936823F4E0537C
:10185000E1680B439360236813F0080F07D0114A27
:10186000936823F46043216943EAC1039360FFF75F
:101870001FFF0C4B9B68C3F303130B4AD35CD84088
:101880000A4B18600A4B186800F0A8FB002070BDD6
:10189000012070470120FAE70120F8E70120F6E770
:1018A000003C0240003802400C2E000808000020D6
:1018B00004000020014B1868704700BF080000209A
:1018C00008B5FFF7F7FF044B9B68C3F38223034A75
:1018D000D35CD84008BD00BF003802401C2E000871
:1018E00008B5FFF7E7FF044B9B68C3F34233034A95
:1018F000D35CD84008BD00BF003802401C2E000851
:1019000000230F2B00F2D28070B582B060E08568B2
:101910005E000324B44025EA0405CC68B4402C439F
:101920008460456825EA02054C68C4F300129A40B9
:101930002A4342605AE0DC08083450F8246003F07F
:10194000070295000F22AA4026EA020E0A69AA4061
:1019500042EA0E0240F824205CE0042200E000226B
:1019600002FA0EF22A430234514D45F82420514A1E
:1019700094686FEA0C0224EA0C054E6816F4801F86
:1019800001D04CEA04054B4CA560E46802EA04056A
:101990004E6816F4001F01D04CEA0405454CE56082
:1019A000646802EA04054E6816F4003F01D04CEA70
:1019B0000405404C6560246822404D6815F4803F62
:1019C00001D04CEA04023B4C226001330F2B6BD850
:1019D00001229A400C6804EA020C32EA0404F4D1B1
:1019E0004C6804F00304013C012C90D94A6802F0D1
:1019F0000302032A09D0C4685D000322AA4024EA36
:101A000002048A68AA402243C2604A6802F00302C4
:101A1000022A90D004684FEA430E032202FA0EF223
:101A200024EA02044A6802F0030202FA0EF2224398
:101A300002604A6812F4403FC7D0002201921E4A59
:101A4000546C44F480445464526C02F48042019219
:101A5000019A9C08A51C164A52F8255003F003026F
:101A60004FEA820E0F2202FA0EF225EA0205134A0D
:101A700090423FF474AF02F5806290420ED002F5BE
:101A8000806290420CD002F5806290420AD002F54A
:101A9000806290423FF461AF072261E701225FE775
:101AA00002225DE703225BE702B070BD704700BF12
:101AB00000380140003C0140003802400000024074
:101AC0000AB18161704709048161704730B40568CB
:101AD0002C6824F480242C60046863608368402BA5
:101AE00005D0036899600368DA6030BC704703680A
:101AF0009A600368D960F8E710B40368D9B2103966
:101B00000C4AA2FB014212090B4CA25CC2655F2980
:101B100009D923F47F7323F0030304338365806DB5
:101B20005DF8044B704723F47F7323F00303836550
:101B3000F5E700BFABAAAAAA042E0008836A82694F
:101B400092B9012B0AD0022B02D00BB100207047B2
:101B5000C36A13F0807F28D100207047C36AB3F1B5
:101B6000C07F24D000207047B2F5005F09D0022B5F
:101B700025D9032B25D1C36A13F0807F23D1002000
:101B80007047032B03D8DFE803F01404140A002085
:101B90007047C36A13F0807F0DD100207047C36A7D
:101BA000B3F1C07F09D000207047012070470120A9
:101BB00070470120704701207047012070470120C5
:101BC00070470020704701207047000070B5044640
:101BD00000F050FA002C5BD00546022384F8353023
:101BE000002384F834302268136823F00103136063
:101BF00023681A6812F0010F0AD000F03BFA431B69
:101C0000052BF5D920236365032084F8350070BDCA
:101C10001A68204810406168A2680A43E1680A43D4
:101C200021690A4361690A43A1690A43E1690A43D8
:101C3000216A0A430243616A04291ED01A60266899
:101C4000756925F00705636A1D43042B07D1A36A54
:101C50001D43E36A1BB12046FFF770FF90B9756121
:101C60002046FFF749FFE26D3F2393408360002049
:101C70006065012384F83530C9E7E16A206B0143D0
:101C80000A43DBE740236365012084F83500BEE7A3
:101C90000120BCE73F8010F038B50446856D90F810
:101CA000340001282BD0012084F8340094F835004A
:101CB000C0B2012804D0002384F83430022038BD9B
:101CC000022084F83500002060652046FFF7FEFE04
:101CD000E26D3F239340AB602268136843F0160324
:101CE0001360236C23B12268136843F00803136068
:101CF0002268136843F0010313600020DFE702202D
:101D0000DDE790F83530DBB2022B03D0802343654A
:101D100001207047052380F835300268136823F0EE
:101D20000103136000207047F0B583B00446002320
:101D30000193724B1D68724BA3FB0535AD0A876D8D
:101D40003E68C26D08239340334210D003681A687E
:101D500012F0040F0BD01A6822F004021A60C26D50
:101D600008239340BB60436D43F001034365E26D7C
:101D700001239340334209D02268526912F0800F48
:101D800004D0BB60636D43F002036365E26D04231E
:101D90009340334209D02268126812F0020F04D037
:101DA000BB60636D43F004036365E26D10239340F1
:101DB000334224D02268126812F0080F1FD0BB6093
:101DC00023681A6812F4802F0DD01B6813F4002FBB
:101DD00004D1236C9BB12046984710E0A36C73B1EB
:101DE000204698470BE01A6812F4807F03D11A68E6
:101DF00022F008021A60236C0BB120469847E26D6E
:101E000020239340334255D02268126812F0100FFD
:101E100050D0BB6094F83530DBB2052B0ED0236870
:101E20001A6812F4802F33D01B6813F4002F2AD1C4
:101E3000636C002B3ED0204698473BE02268136835
:101E400023F0160313602268536923F08003536163
:101E5000236CA3B12268136823F008031360E26DBA
:101E60003F239340BB60012384F83530002384F87E
:101E70003430236D002B3FD0204698473CE0A36CC4
:101E8000002BE7D1EBE7E36BA3B12046984711E0C5
:101E90001A6812F4807F09D11A6822F010021A60C1
:101EA000012384F83530002384F83430E36B0BB120
:101EB00020469847636DFBB1636D13F0010F17D097
:101EC000052384F835302268136823F0010313607A
:101ED000019B01330193AB4204D823681B6813F0C4
:101EE000010FF5D1012384F83530002384F8343014
:101EF000E36C0BB12046984703B0F0BD080000200A
:101F0000B5814E1B074AD36823F4E0631B041B0C06
:101F1000000200F4E060034343F0BF6343F4003386
:101F2000D360704700ED00E000B5194BDB68C3F3E8
:101F30000223C3F1070CBCF1040F28BF4FF0040CBF
:101F400003F1040EBEF1060F18D9033B4FF0FF3E1C
:101F50000EFA0CFC21EA0C0199400EFA03F322EA76
:101F60000303194300280BDB0901C9B200F16040EB
:101F700000F5614080F800135DF804FB0023E5E7FD
:101F800000F00F000901C9B2024B1954F4E700BF79
:101F900000ED00E014ED00E0002807DB00F01F0278
:101FA000400901239340024A42F82030704700BFA5
:101FB00000E100E00138B0F1807F0BD24FF0E02368
:101FC0005861054AF02182F8231000209861072209
:101FD0001A6170470120704700ED00E010B504461B
:101FE0000E4B18784FF47A73B3FBF0F30C4A106879
:101FF000B0FBF3F0FFF7DEFF68B90F2C01D9012029
:102000000AE0002221464FF0FF30FFF78DFF054B1D
:102010001C60002000E0012010BD00BF0000002077
:10202000080000200400002008B50B4B1A6842F499
:1020300000721A601A6842F480621A601A6842F4E8
:1020400080721A600320FFF75DFF0F20FFF7C6FFC5
:10205000FEF738FD002008BD003C0240034A11682D
:10206000034B1B780B441360704700BF1C02002019
:1020700000000020014B1868704700BF1C020020C0
:10208000034AD2F8883043F47003C2F888307047AE
:1020900000ED00E010B503460C4A0D490D480068FC
:1020A00040B10C4800680344521A934206D8094ACA
:1020B000136010BD0748084C0460F2E700F0CAF94D
:1020C0000C2303604FF0FF30F3E700BF0000022055
:1020D000000400002002002038020020026802F103
:1020E0000C0353E8003F23F490730C3242E80031B4
:1020F0000029F3D1026802F1140353E8003F23F0F2
:102100000103143242E800310029F3D1036B012BA3
:1021100005D0202380F84230002303637047026813
:1021200002F10C0353E8003F23F010030C3242E8A5
:1021300000310029F3D1ECE738B504460268136991
:1021400023F44053C1680B4313618368026913434E
:1021500042691343C2691A430168CB6823F41643EA
:1021600023F00C031343CB600268536923F44073DC
:1021700081690B4353610368314A934206D002F5EB
:102180008062934202D0FFF79BFB01E0FFF7A8FBC0
:10219000E369B3F5004F29D00021031849411B180A
:1021A00041F10001C90041EA5371DB00181863686E
:1021B0004FEA83024FEA937341F10001FEF760F8A2
:1021C000204DA5FB00325109642303FB11031B01C1
:1021D0003233A5FB03235B0903F0F00202EB01128B
:1021E00003F00F03216813448B6038BD00230218ED
:1021F00043EB0301121841F10001C90041EA527199
:10220000D200101841F10001626892185B41FEF79C
:1022100037F80C4DA5FB00325109642303FB110371
:10222000DB003233A5FB03235B095A0002F4F8728A
:1022300002EB011203F00703216813448B60D4E71B
:10224000001001401F85EB512DE9F04383B0054696
:102250000E4617469946DDF828802C68246836EA31
:1022600004030CBF4FF0010C4FF0000CBC4528D10B
:10227000B8F1FF3FF1D0FFF7FDFEA0EB09004045AC
:1022800023D8B8F1000F22D02B68DA6812F0040FBF
:10229000E3D0802EE1D0402EDFD01A6812F0080F74
:1022A000DBD0002401941A6801925B680193019BC2
:1022B0002846FFF713FF08236B6485F84040012090
:1022C00000E0002003B0BDE8F0830320FAE703201C
:1022D000F8E760B310B5044690F8413013B32423F7
:1022E00084F841302268D36823F40053D360204639
:1022F000FFF722FF2268136923F4904313612268D9
:10230000536923F02A0353612268D36843F40053CE
:10231000D36000206064202384F8413084F8423088
:10232000606310BD80F84030FEF770FCD7E70120F5
:1023300070472DE9F04182B01E4690F84130DBB283
:10234000202B56D104460D469046002955D00AB997
:1023500001204FE000234364212380F84130FFF740
:1023600089FE0746A4F82480A4F82680A368B3F564
:10237000805F02D04FF0000814E023692BB34FF0C8
:1023800000080FE0202384F84130032032E038F8C1
:10239000023B2268C3F308035360E28C92B2013A15
:1023A00092B2E284E38C9BB293B100963B4600224A
:1023B00080212046FFF748FF0028E3D1002DE6D01A
:1023C00015F8012B23685A60E7E7A8460025E9E7DE
:1023D00000963B46002240212046FFF735FF18B902
:1023E000202384F8413005E0202384F84130032085
:1023F00000E0022002B0BDE8F0810120FAE7000011
:10240000DFF834D0FFF73CFE0C480D490D4A00239D
:1024100002E0D458C4500433C4188C42F9D30A4A99
:102420000A4C002301E013600432A242FBD300F007
:1024300017F8FEF7F3F970470000022000000020B3
:1024400070000020682E0008700000203402002078
:10245000FEE70000014B1868704700BF0C00002029
:1024600070B50D4D0D4C641BA4100026A64209D179
:102470000B4D0C4C00F0A2FC641BA4100026A642DD
:1024800005D170BD55F8043B98470136EEE755F885
:10249000043B98470136F2E7602E0008602E0008E2
:1024A000602E0008642E000802440346934200D1C7
:1024B000704703F8011BF9E70CB430B5174B0C1E3D
:1024C0001D689DB008DA8B232B604FF0FF301DB0E4
:1024D000BDE8304002B070474FF40273ADF81430DD
:1024E00014BF04F1FF332346049307934FF6FF73A1
:1024F00002900690ADF81630209A21AB02A928462A
:10250000019300F069F8431CBCBF8B232B60002CA7
:10251000DDD0029B00221A70D9E700BF0C0000201A
:102520002DE9F0478E689E4282460C4690461F4633
:1025300038D88A8912F4906F32D025680969A5EBE2
:102540000109656905EB450505EBD57501334B447C
:102550006D109D4238BF1D46530531D5294600F008
:1025600063FB064650B90C23CAF80030A38943F038
:102570004003A3814FF0FF30BDE8F08721694A4650
:1025800000F0BEFAA38923F4906343F08003A38193
:10259000266165614E44A5EB09052660A5603E46AF
:1025A000BE4200D93E4620683246414600F0B6FAA7
:1025B000A3689B1BA3602368334423600020DBE7F0
:1025C0002A4600F0A5FB06460028E1D121695046C5
:1025D00000F0BEFAC7E700002DE9F04F98468B895E
:1025E0001B069DB007460D4614460ED50B6963B910
:1025F000402100F019FB2860286120B90C233B60C2
:102600004FF0FF30D1E040236B610023099320237A
:102610008DF82930CDF80C803023DFF8A8818DF8B3
:102620002A304FF0010923469A4613F8012B0AB1CC
:10263000252AF9D1BAEB040B0BD05B46224629467A
:102640003846FFF76DFF013000F0AA80099A5A441E
:1026500009929AF80030002B00F0A28000234FF07E
:10266000FF32CDE905230AF1010A049307938DF89F
:1026700053301A935446052214F8011B5148FDF7B4
:10268000AFFD049AD8B9D00644BF20238DF853304B
:10269000110744BF2B238DF853309AF800302A2BB2
:1026A00015D0079A544600204FF00A0C214611F825
:1026B000013B303B092B4ED9B0B1079214E0A0EB9F
:1026C000080309FA03F313430493A246D2E7039BDA
:1026D000191D1B680391002BBBBF5B4242F0020235
:1026E00007930793B8BF049223782E2B0CD16378FD
:1026F0002A2B35D1039B1A1D1B680392002BB8BFF0
:102700004FF0FF3302340593DFF8C8A0217803228D
:102710005046FDF765FD40B14023A0EB0A0003FAE7
:1027200000F0049B03430134049314F8011B264872
:102730008DF828100622FDF753FD002838D0234BD2
:102740001BBB039B073323F0070308330393099B49
:102750003344099367E70CFB02320C460120A5E7DE
:1027600000230134059319464FF00A0C204610F857
:10277000012B303A092A03D9002BC5D00591C3E7B4
:102780000CFB012104460123F0E703AB00932A462A
:102790000F4B04A93846AFF30080421C0646D6D141
:1027A000AB895B063FF52CAF09981DB0BDE8F08FF3
:1027B00003AB00932A46064B04A9384600F07AF88A
:1027C000EBE700BF242E00082E2E000800000000BA
:1027D000212500082A2E00082DE9F04716469946C3
:1027E0008A680B69DDF820809342B8BF13463360D6
:1027F00091F8432007460C460AB101333360236841
:10280000990642BF336802333360256815F0060528
:1028100006D104F1190AE36832689B1AAB4226DC40
:1028200094F84320131E226818BF012392062BD46C
:1028300004F1430249463846C04701301ED02368A0
:10284000E568326803F00603042B08BFAD1AA368DD
:1028500022690CBF25EAE57500259342C4BF9B1A87
:10286000ED1800261A34B5421AD1002008E00123E1
:10287000524649463846C047013003D14FF0FF3039
:10288000BDE8F0870135C6E7E1185A1C302081F811
:102890004300224494F8451082F843100233C7E7FE
:1028A0000123224649463846C0470130E6D001366A
:1028B000D9E700002DE9FF470F7E0C9D782F914648
:1028C00080460C469A4601F1430207D8622F0AD887
:1028D000002F00F0D880582F00F0A38004F14205AB
:1028E00084F842703AE0A7F16303152BF6D801A1F2
:1028F00051F823F04D29000861290008DD2800085F
:10290000DD280008DD280008DD280008612900080E
:10291000DD280008DD280008DD280008DD28000883
:102920006D2A0008912900084F2A0008DD280008B8
:10293000DD2800088F2A0008DD28000891290008FA
:10294000DD280008DD280008572A00082B681A1D1A
:102950001B682A6004F1420584F842300123A3E099
:1029600020682968060601F104030AD50E682B6069
:10297000002E03DA2D23764284F843305E480A2382
:1029800019E00E682B6010F0400F18BF36B2EFE769
:102990002B682068191D2960010601D51E6802E018
:1029A0004606FBD51E8854486F2F0CBF08230A2308
:1029B000002184F843106568A560002DA2BF21683E
:1029C00021F0040121600EB9002D4DD01546B6FB53
:1029D000F3F103FB1167C75D05F8017D3746BB4284
:1029E0000E46F4D9082B0BD12368DE0708D52369DE
:1029F00061689942DEBF302305F8013C05F1FF35DF
:102A0000521B2261CDF800A04B4603AA2146404646
:102A1000FFF7E2FE01304CD14FF0FF3004B0BDE8CB
:102A2000F087354881F845702968236851F8046BB0
:102A300029601D0614D5DF0744BF43F0200323603F
:102A40001EB9236823F0200323601023B0E7236816
:102A500043F0200323607823284884F84530E3E7D7
:102A6000590648BFB6B2E6E71546BBE72B682668AD
:102A70006169181D286035061B6801D5196002E0E0
:102A80007006FBD51980002323611546BAE72B6831
:102A90001A1D2A601D68626800212846FDF7A0FB08
:102AA00008B1401B606063682361002384F84330F1
:102AB000A8E723692A4649464046D0470130ABD0B3
:102AC00023689B0713D4E068039B9842B8BF18465D
:102AD000A4E70123324649464046D04701309BD007
:102AE0000135E36803995B1AAB42F2DCEBE70025A2
:102AF00004F11906F5E700BF352E0008462E000840
:102B00000A44914200F1FF3300D1704710B511F82B
:102B1000014B03F8014F9142F9D110BD884210B525
:102B200001EB020402D98442234607D8431EA14286
:102B300008D011F8012B03F8012FF8E702440146F1
:102B40008A4200D110BD13F8014D02F8014DF7E79C
:102B500037B5002944D051F8043C0190002BA1F175
:102B60000404B8BFE41800F013F91E4A0198136872
:102B700033B96360146003B0BDE8304000F00EB9B3
:102B8000A34208D9256861198B4201BF19685B68A7
:102B900049192160EDE71A465B680BB1A342FAD9E7
:102BA00011685518A5420BD1246821445418A3423A
:102BB0001160E0D11C685B68536021441160DAE762
:102BC00002D90C230360D6E7256861198B4204BF44
:102BD00019685B68636004BF491921605460CAE7E3
:102BE00003B030BD2402002070B50E4E0C46316893
:102BF000054611B900F0BCF830602146284600F0C7
:102C0000B7F8431C0AD0C41C24F00304A04207D028
:102C1000211A284600F0ACF8013001D14FF0FF3402
:102C2000204670BD280200202DE9F041CD1C25F082
:102C3000030508350C2D38BF0C25002D074601DB98
:102C4000A94205D90C233B6000263046BDE8F0813F
:102C50002E4E00F09DF833681C4634BB294638469A
:102C6000FFF7C2FF431C04464DD134682646002EB0
:102C700040D123683146384604EB030800F078F869
:102C800080453AD1216803356D1A25F003050835D2
:102C90000C2D38BF0C2529463846FFF7A5FF01301B
:102CA0002BD023682B4423600EE02268521B1ED4D5
:102CB0000B2A16D96119A342256018BF59606368B1
:102CC00008BF316062514B60384604F10B0600F0DA
:102CD00065F826F00706231DF21AB6D09B1BA350F9
:102CE000B3E76268A3420CBF32605A60ECE7234648
:102CF0006468B2E734467668B9E70C233B6038462F
:102D000000F04CF8A1E72560DEE700BF24020020B8
:102D10002DE9F041804614460E4621B9BDE8F04148
:102D20001146FFF781BF2AB9FFF712FF2546284653
:102D3000BDE8F08100F038F88442074602D8B4EBD1
:102D4000500F12D821464046FFF76EFF0546002877
:102D5000EDD0BC422246314628BF3A46FFF7D0FEAE
:102D600031464046FFF7F4FEE1E73546DFE7000075
:102D700038B5064D0023044608462B60FFF78AF954
:102D8000431C02D12B6803B1236038BD2C02002004
:102D9000014800F011B800BF30020020014800F0E7
:102DA0000CB800BF3002002051F8043C181F002B63
:102DB000BCBF0B58C018704770477047F8B500BFCC
:102DC000F8BC08BC9E467047F8B500BFF8BC08BC0C
:042DD0009E46704764
:102DD40025733A0020253032580000000D0A000007
:102DE400424D5032383020526177204144432070A4
:102DF400726573737572652064617461000000000C
:102E04000006101600061016000000000000000066
:102E1400010203040607080900000000010203047C
:102E2400232D302B2000686C4C00656667454647AF
:102E34000030313233343536373839414243444532
:102E440046003031323334353637383961626364A1
:042E540065660000AF
:082E580058D4FF7F01000000C7
:042E6000C5010008A0
:042E6400A1010008C0
:102E680001000000100000000024F4001000002001
:102E7800000000000000000000000000000000004A
:102E8800000000000000000000000000000000003A
:102E9800000000000000000000000000000000002A
:102EA800000000000000000000000000000000001A
:102EB800000000000000000000000000000000000A
:102EC80000000000000000000000000000000000FA
:0400000508002401CA
:00000001FF
